:10000000F8FF002011040000DFFA0000DFFA000012
:10001000DFFA0000DFFA0000DFFA0000DFFA00007C
:10002000DFFA0000DFFA0000DFFA0000DFFA00006C
:10003000DFFA0000DFFA0000DFFA0000DFFA00005C
:100040005F490100DFFA0000DFFA0000DFFA00007C
:10005000DFFA0000DFFA0000DFFA0000DFFA00003C
:10006000DFFA0000DFFA0000DFFA0000DFFA00002C
:10007000DFFA0000DFFA0000DFFA0000DFFA00001C
:10008000DFFA0000DFFA0000DFFA0000DFFA00000C
:10009000DFFA0000DFFA0000DFFA0000DFFA0000FC
:1000A000DFFA0000DFFA0000DFFA0000DFFA0000EC
:1000B000DFFA0000DFFA0000DFFA0000DFFA0000DC
:1000C000DFFA0000DFFA0000DFFA0000DFFA0000CC
:1000D000DFFA0000DFFA0000DFFA0000DFFA0000BC
:1000E000DFFA0000DFFA0000DFFA0000DFFA0000AC
:1000F000DFFA0000DFFA0000DFFA0000DFFA00009C
:10010000DFFA0000DFFA0000DFFA0000DFFA00008B
:10011000DFFA0000DFFA0000DFFA0000DFFA00007B
:10012000DFFA0000DFFA0000DFFA0000DFFA00006B
:10013000DFFA0000DFFA0000DFFA0000DFFA00005B
:10014000DFFA0000DFFA0000DFFA0000DFFA00004B
:10015000DFFA0000DFFA0000DFFA0000DFFA00003B
:10016000DFFA0000DFFA0000DFFA0000DFFA00002B
:10017000DFFA0000DFFA0000DFFA0000DFFA00001B
:10018000DFFA0000DFFA0000DFFA0000DFFA00000B
:10019000DFFA0000DFFA0000DFFA0000DFFA0000FB
:1001A000DFFA000063490100DFFA0000DFFA000017
:1001B000DFFA0000DFFA0000DFFA0000DFFA0000DB
:1001C000DFFA0000DFFA0000DFFA0000DFFA0000CB
:1001D000DFFA0000DFFA0000DFFA0000DFFA0000BB
:1001E000DFFA0000DFFA0000DFFA0000DFFA0000AB
:10040000FFFFFFFFFFFFFFFFFFFFFFFFFEFFFFFFFD
:1004100062B614F0D5F9FEE70200120022003200A5
:10042000420052006200000002001200220032006E
:1004300042005200620000000000000000000000C6
:1004400001000100010001000100010002000200A2
:100450000200030002000200020003000300030088
:10046000040003000300030003000400040005006F
:10047000030003000400040005000500050004005B
:100480000400040005000500060006000400050045
:10049000050006000600060006000000000001003E
:1004A0000200030004000500060001000100020034
:1004B0000300040005000600020002000200030021
:1004C000040005000600030003000300030004000D
:1004D00005000600040004000400040004000500F8
:1004E00006000500050005000500050005000600E2
:1004F00006000600060006000600060006000000D2
:100500000005FF1F2005FF1F00003C007800AA0027
:10051000DC00360172010000000046008200B400D9
:10052000E60040017C0100006666863F713D8A3F1F
:100530007B148E3FD7A3903F3333933FE17A943FB0
:100540008FC2953F00001000200030004000500096
:10055000600000000000100020003000400050004B
:10056000600000000000100020003000400050003B
:100570006000000006000500040003000200010006
:100580000100050004000400030002000100000057
:10059000040003000300020001000000000003004B
:1005A0000200020001000000000000000200010043
:1005B0000100000000000000000001000000000039
:1005C000000000000000000000000000000000002B
:1005D0000000000000000600050004000300020007
:1005E00001000100050005000400030002000100F5
:1005F00001000400040003000200010001000000EB
:1006000003000300030002000100010000000200DB
:1006100002000200010001000000000002000100D1
:1006200001000000000000000000010001000000C7
:1006300000000000000000000600050004000300A8
:100640000200010001000500050004000300020093
:100650000100010004000400030002000100010089
:10066000000003000300030002000100010000007D
:100670000200020002000100010000000000020070
:100680000100010000000000000000000100010066
:100690000000000000000000000003000200010054
:1006A0000100010000000000020002000100010042
:1006B0000000000000000100010001000000000037
:1006C0000000000001000100000000000000000028
:1006D0000000010000000000000000000000000019
:1006E000000000000000000000000000000000000A
:1006F00000000000000000000000000002000100F7
:1007000001000100000000000000010001000100E4
:1007100000000000000000000100010000000000D7
:1007200000000000000001000000000000000000C8
:1007300000000000000000000000000000000000B9
:1007400000000000000000000000000000000000A9
:100750000000000000000000000000000000010098
:100760000100010000000000000000000100010085
:100770000000000000000000000001000000000078
:100780000000000000000000000000000000000069
:100790000000000000000000000000000000000059
:1007A0000000000000000000000000000000000049
:1007B0000000000000000000000000000000000039
:1007C0000100010000000000000000000000010026
:1007D0000000000000000000000000000000000019
:1007E0000000000000000000000000000000000009
:1007F00000000000000000000000000000000000F9
:1008000000000000000000000000000000000000E8
:1008100000000000000000000000000000000000D8
:10082000000000003008FF1FB400B900BE00C30084
:10083000C800CD00D2000000C800CB00CE00D2001E
:10084000D700DC00E6000000D200D700DC00E600A4
:10085000F000FA0009010000E600EB00F000FA00E9
:1008600004010E0118010000F000F500FA00040177
:100870000E01130118010000FA00FF000401090134
:1008800013011D01270100000401040109011801E1
:1008900022012C0136010000AA00AF00B400B9000B
:1008A000BE00C300C8000000B900BE00C300C800FD
:1008B000CD00D200D7000000C800CD00D200D70084
:1008C000DC00E100E6000000DC00E100E600EB00F7
:1008D000F000F500FA000000E100E600EB00F00097
:1008E000F500FA0004010000E100E600EB00F00072
:1008F000F500FA0004010000E100E600EB00F00062
:10090000F500FA00040100003008FF1FA008FF1FD7
:100910000A0000000000000000060000CDCC4C41A1
:10092000CDCC4C3F000000000000000000000000A3
:1009300000000000000000000000000000000000B7
:1009400000000000000000000000000000000000A7
:100950000000000000000000000000000000000097
:100960000000000000000000000000000000000087
:1070400000000000140001006666A6419A99993F6D
:1070500000B0034000B00B40000000000000000042
:107060000000000000000000000000000000000020
:107070000000000000004E6F6E4D61736B61626C2A
:107080006500000000486172644661756C74000020
:10709000000000004D656D4D616E6167656D656E48
:1070A0007400004275734661756C74000000000046
:1070B000000055736167654661756C7400000000DF
:1070C00000000000000000000000000000000000C0
:1070D00000000000000000000000000000000000B0
:1070E00000000000000000000000000000000000A0
:1070F00000000000000000000000000000535643A4
:10710000616C6C00000000000000000044656275C6
:10711000674D6F6E69746F72000000000000000020
:107120000000000000000000000050656E6453562F
:107130000000000000000000005379735469636B85
:107140000000000000000000444D4130000000003D
:1071500000000000000000444D413100000000002C
:10716000000000000000444D41320000000000001B
:107170000000000000444D4133000000000000000A
:1071800000000000444D41340000000000000000F9
:10719000000000444D4135000000000000000000E8
:1071A0000000444D413600000000000000000000D7
:1071B00000444D41370000000000000000000000C6
:1071C000444D413800000000000000000000004471
:1071D0004D41390000000000000000000000444D57
:1071E00041313000000000000000000000444D412B
:1071F000313100000000000000000000444D41312A
:107200003200000000000000000000444D41313316
:1072100000000000000000000000444D4131340037
:10722000000000000000000000444D413135000026
:107230000000000000000000444D415F4572726F85
:10724000720000000000004D434D000000000000EF
:107250000000000000004654464C00000000000002
:107260000000000000526561645F436F6C6C6973DD
:10727000696F6E004C56445F4C565700000000008A
:107280000000004C4C57000000000000000000000F
:1072900000005761746368646F67000000000000BD
:1072A00000524E47000000000000000000000000F7
:1072B0004932433000000000000000000000004997
:1072C0003243310000000000000000000000535075
:1072D0004930000000000000000000000053504949
:1072E000310000000000000000000000535049324F
:1072F000000000000000000000000043414E305F2D
:107300004F525F4D425F6275660043414E305F42AF
:1073100075735F4F666600000043414E305F4572F3
:10732000726F72000000000043414E305F54785F7E
:107330005761726E696E6743414E305F52785F5796
:1073400061726E696E6743414E305F57616B655F76
:1073500055700000005265736572766564353100C2
:107360000000000052657365727665643532000076
:1073700000000043414E315F4F525F4D425F6275E6
:10738000660043414E315F4275735F4F6666000091
:107390000043414E315F4572726F72000000000081
:1073A00043414E315F54785F5761726E696E674337
:1073B000414E315F52785F5761726E696E6743412B
:1073C0004E315F57616B655F557000000052657309
:1073D000657276656435390000000000526573659A
:1073E000727665643630000000000055415254301A
:1073F0005F52585F54580000000055415254305FAE
:1074000045525200000000000055415254315F5275
:10741000585F54580000000055415254315F4552A6
:107420005200000000000055415254325F52585F34
:1074300054580000000055415254325F45525200EA
:10744000000000000055415254335F52585F5458B9
:107450000000000055415254335F45525200000075
:1074600000000055415254345F52585F5458000098
:10747000000055415254345F455252000000000054
:107480000055415254355F52585F54580000000077
:1074900055415254355F45525200000000000041F2
:1074A00044433000000000000000000000004144A0
:1074B00043310000000000000000000000434D5078
:1074C000300000000000000000000000434D50317B
:1074D0000000000000000000000000434D5032009A
:1074E0000000000000000000000046544D30000085
:1074F00000000000000000000046544D3100000074
:10750000000000000000000046544D320000000062
:1075100000000000000000434D5400000000000087
:107520000000000000005254430000000000000072
:1075300000000000005265736572766564383300A0
:10754000000000005049543000000000000000001E
:10755000000000504954310000000000000000000D
:1075600000005049543200000000000000000000FC
:1075700000504954330000000000000000000000EB
:1075800050444230000000000000000000000055A0
:10759000534230000000000000000000000055537E
:1075A00042444344000000000000000000454E45F6
:1075B000545F313538385F54696D6572454E4554B6
:1075C0005F5472616E736D69740000454E45545F7F
:1075D00052656365697665000000454E45545F4518
:1075E00072726F72000000000049325330000000D8
:1075F0000000000000000000534448430000000069
:107600000000000000000044414330000000000082
:107610000000000000004441433100000000000071
:10762000000000000054534930000000000000003A
:10763000000000004D434700000000000000000073
:107640000000004C5054696D65720000000000009D
:107650000000526573657276656431303200000057
:1076600000504F5254410000000000000000000094
:10767000504F525442000000000000000000005033
:107680004F52544300000000000000000000504F23
:1076900052544400000000000000000000504F520F
:1076A00054450000000000000000000052657365B2
:1076B000727665643130380000000052657365727F
:1076C000766564313039000000005265736572766A
:1076D0006564313130000000005265736572766573
:1076E0006431313100000000526573657276656463
:1076F0003131320000000052657365727665643185
:107700003133000000005265736572766564313173
:10771000340000000052657365727665643131355E
:107720000000000052657365727665643131360081
:107730000000005265736572766564313137000070
:10774000000052657365727665643131380000005F
:10775000005265736572766564313139000000004E
:10776000008003400090034000800B4000000000B8
:10777000000000000000000000F00F4040F00F404B
:1077800080F00F40C0F00F4000F10F40F0000A1DE4
:107790003000180032001801600018186400181A30
:1077A0006E00181F780013187D00131A8200131C36
:1077B0008C000E1296000E15A0000E18AA000E1BCB
:1077C000B4000E1EC8000C1CE1000B1EFA000A1FBC
:1077D000000109080090044000A0044000B00440EB
:1077E00000C0044000D0044000A0064000B00640A5
:1077F00000C0064000D0064000A00E4000B00E4081
:107800000000000000000000000000000000000078
:107810000000000000000000000000000000000068
:107820000000000000000000000000000000000058
:107830000000000000000000000000000000000048
:107F800000000000713D8A40CDCC8440000080405C
:107F90003D0A77407B146E4052B85E4052B85E4056
:107FA000AE4751401F854B408FC2454000004040C6
:107FB00048E13A408FC23540CDCC2C40CDCC2C404E
:107FC000E17A2440E17A2440CDCC1C40CDCC1C4049
:107FD00066661640666616400000104000001040BD
:107FE000713D0A40713D0A40B81E0540B81E05406B
:107FF0005C8F024000000040000000403D0AF73F57
:108000003D0AF73F7B14EE3F7B14EE3F6666E63F8A
:108010006666E63F6666E63F52B8DE3F52B8DE3F30
:10802000EC51D83FEC51D83FE17AD43F85EBD13FBA
:108030007B14CE3F1F85CB3F1F85CB3FC3F5C83F89
:10804000B81EC53F5C8FC23F0000C03F0000C03F6C
:10805000A470BD3F48E1BA3FEC51B83FEC51B83F86
:10806000EC51B83F3333B33F3333B33F295CAF3FB9
:10807000295CAF3F295CAF3F713DAA3F713DAA3FEC
:10808000C3F5A83F6666A63F6666A63FB81EA53F35
:10809000B81EA53F5C8FA23FAE47A13FAE47A13FB0
:1080A00052B89E3F52B89E3F52B89E3F52B89E3F34
:1080B00048E19A3F48E19A3F48E19A3FEC51983FA6
:1080C000EC51983FEC51983F8FC2953FE17A943F35
:1080D000E17A943FE17A943F3333933F85EB913FCC
:1080E00085EB913F85EB913FD7A3903F7B148E3F6B
:1080F0007B148E3F7B148E3FCDCC8C3F1F858B3FF6
:10810000713D8A3F713D8A3F713D8A3FC3F5883F8B
:1081100014AE873F14AE873F14AE873F14AE873F3F
:108120006666863FB81E853FB81E853FB81E853FF0
:10813000B81E853FB81E853F0AD7833F5C8F823FBC
:108140005C8F823F5C8F823F5C8F823F5C8F823F7F
:108150005C8F823F0000803F0000803F0000803F36
:108160000000803F19001A001B001C001D001F00AA
:108170001F002100220023002400250026002800E3
:1081800028002A002A002C002C002E002E0030008F
:108190003000320032003400340035003600360042
:1081A000380038003A003A003C003C003C003E00F9
:1081B0003E004000400041004200430044004400B3
:1081C0004500460047004800480049004A004B006F
:1081D0004B004B004D004D004F004F004F00510031
:1081E00051005200530053005400540055005600F3
:1081F00056005700570057005700590059005900C2
:108200005B005B005B005C005D005D005D005E008C
:108210005F005F005F00600061006100610062005C
:108220006300640064006400650066006600660028
:108230006600670068006800680068006800690000
:108240006A006A006A006A006A006A006C006C00DA
:108250006C006C00222123290D81110009030CD030
:108260001240173F185019031A783200A00A63E031
:10827000ACFF650C6600670029282C3C2A007E0CA8
:108280007F16802A814E8261836F847B8586868EED
:10829000879788A489AF8AC58BD78CE88D204A0040
:1082A000491347084B144C17460522992303A6048B
:1082B0009B009C40AB069E119F0200000131000014
:1082C0000000000070B40FF28004248881B0ADF883
:1082D0000040ABB30DF1000412F8015BEE4301F86E
:1082E000016BEE09365D00F8016BAE0906F0010680
:1082F000365D00F8016B6E0906F00106365D00F888
:10830000016B2E0906F00106365D00F8016BEE08E0
:1083100006F00106365D00F8016BAE0806F00106B6
:10832000365D00F8016B6E0806F0010605F00105E8
:10833000365D00F8016B5B1E2D5D00F8015BCBD153
:1083400001B070BC70470000FF0000002DE9F04F45
:1083500087B0002002900024ADF80C0002F032FE3D
:10836000DFF8DC1C0C7001F046FA0646DFF8D40C8E
:10837000DFF8D01CD0F86407D1F86017421802EB80
:10838000D272D2051216142A02D2401A042800DA38
:108390000A22DFF8B40C0270334603AA0DF10A0179
:1083A00002A801F0A5FADFF8A41C087003460096A5
:1083B00003AA0DF10A0102A801F0D8FBDFF88C1C1A
:1083C000DFF88C8C0870424631B2772001F08EFFC6
:1083D000DFF8809C4A4631B2772001F087FF75258F
:1083E000DFF874ACDFF8747C752E29DA08EB4500F1
:1083F00038F91510B0F90400401A05F09BFB002273
:108400003B4605F0ADFB05F08DFC4AF82500681EE3
:1084100045B2AE4214DA08EB450038F91510B0F950
:108420000400401A05F086FB00223B4605F098FB4D
:1084300005F078FC4AF82500681E45B2AE42D5DB4F
:108440007525752E80F22E8009EB450039F915103F
:10845000B0F90400401A05F06DFB00223B4605F020
:108460007FFB05F05FFC0AF56D7141F82500681E81
:1084700045B2AE4216DA09EB450039F91510B0F9EC
:108480000400401A05F056FB00223B4605F068FB4D
:1084900005F048FC0AF56D7141F82500681E45B2EB
:1084A000AE42D1DB6C2342463146504601F05CFFC0
:1084B00072234A4631460AF56D7001F055FF6C2271
:1084C0003146504601F093FF722231460AF56D7035
:1084D00001F08DFF9AF9A8130D463046AE42B8BFA1
:1084E00028469AF95C27059017463046BE42B8BF29
:1084F0003846DFF86C3B04901C60DFF8683BDFF81F
:10850000680B1C600378002B00F00A810596049626
:10851000DFF8380B0057012840F0E4809AF978C75B
:10852000BCF1020F00F0F480C0F0FA80BCF1040F3F
:1085300000F0EE8080F0F480012B67D19AF9AE0351
:1085400005240228C0F2C5809AF9AB03002804BFB5
:108550009AF9AC03012840F0BC80BAF97C07884244
:10856000B8BF5A2D80F2B5809AF9A903DFF8FC1A3A
:108570000F6845FA80F000EBD070401039F9101008
:1085800038F91000081A05F015FC394605F02CFCE6
:1085900005F096FCDFF8D81AB8F9EE20B9F9EE30FC
:1085A00008809F1A00B2B842A8BF981A088005F147
:1085B00028007728C8BF7720B0EB050FC0F2B08045
:1085C000B1F9002038F81030D31828F81030401EC8
:1085D000A842C0F2A58038F81030D31828F810301F
:1085E000401EA842C0F29C8038F81030D31828F8FA
:1085F0001030401EA842C0F2938038F81030D218D4
:1086000028F81020401EA842DADA89E0022B40F058
:1086100087809AF96207062402285ADB9AF95F07D5
:10862000002804BF9AF96007012852D1BAF97C07E3
:108630009042B8BF5A2F4CDA9AF95D07DFF82C1A2E
:108640000D6847FA80F000EBD070401039F9101037
:1086500038F91000081A05F0ADFB294605F0C4FBF7
:1086600005F02EFCDFF8081AB8F9EE20B9F9EE3063
:1086700008809D1A00B2A842A8BF981A088007F186
:1086800028007728C8BF7720B84249DBB1F900201D
:1086900039F810309B1A29F81030401EB8423FDBE1
:1086A00039F810309B1A29F81030401EB84237DBD9
:1086B00039F810309B1A29F81030401EB8422FDBD1
:1086C00039F810309A1A29F81020401EB842DDDA25
:1086D00026E0DFF894190020AAF87C0708708AF8D1
:1086E00078071CE0022812D19AF97817022904D0E1
:1086F00016D3042905D00BD312E003218AF878178A
:1087000006E09DF80B209DF80910334605E038B9C6
:108710009DF80A209DF80810334602F08DFD0446AE
:10872000DFF85059DFF850092F7890F90000F0B1C8
:10873000DFF818099DF80A209DF8081090F900004C
:1087400004F0E0FADFF8300990F90000042470B971
:10875000DFF828190860DFF82819DFF82809007801
:10876000384008707806070E202F08BF0127DFF871
:10877000440C2F7090F9000060B1DFF8005901201F
:108780002860032404F066FCDFF8280C90F9000050
:1087900000B92860DFF8E00890F90000002843D114
:1087A000002C18BF032C50D19AF963079AF9AF1324
:1087B0000A1A48BF5242142A47DA1529A8BF1528B9
:1087C00043DB304601F080FF0446042C12D1DFF871
:1087D000AC18012008600020DFF8D81B0870DFF813
:1087E000A008007800280CBF01200520DFF88818B9
:1087F00008701EE0032C02BFDFF8B80B90F90000F0
:10880000002811D10120DFF8AC1B08709AF963171A
:108810009AF9AF0338F9100039F91110081800EB74
:10882000D0704010CAF88007DFF84C0890F90000BB
:1088300058B1DFF818080596049601789DF80A30BB
:108840009DF80820304602F0E9FEDFF81C080578A4
:10885000002D1FBFDFF84C0D00780028032840F0E2
:10886000E180DFF8140890F90000002840F0DA8079
:10887000DFF8D80790F90070002F00F0D3800DF1D9
:108880000A0038189AF9AF2310F8010C8242BCBFD5
:108890009AF96327824280F2C5809AF9A813C91E0B
:1088A0008142BEBF9AF95C17C91E814280F2BA802C
:1088B0009DF808109F22491C884234DAA1EB000C75
:1088C00008EB40031CF0030E00F00B80B3F900B07E
:1088D0009345B8BF5A46AEF1010E9B1CBEF1000F86
:1088E000F4D15FEA9C0C1BD0B3F900E09645B8BF09
:1088F0007246B3F902E09645C8BF9646B3F904B094
:10890000F345C8BFF346B3F906200FFA8BFB5A456F
:10891000C8BF5A46ACF1010C0833BCF1000FE3D1DB
:10892000012AC0F27F80002288422BDA091A09EB63
:10893000400011F0030308D0B0F900C06245B8BF91
:1089400062465B1E801C002BF6D1890800F018805F
:10895000B0F900309A42B8BF1A46B0F902309A42D4
:10896000B8BF1A46B0F904309A42B8BF1A46B0F9F7
:1089700006309A42B8BF1A46491E08300029E7D18E
:108980009F2A4FDA9DF80A209DF808109DF90C00E7
:1089900002F018F90446052C04D01AD3072C0DD088
:1089A00003D316E0ADB9012001E095B90220DFF84C
:1089B000B8160870781C8AF878070AE0DFF8E40B2C
:1089C0000078002818BF032803D1DFF8D81B401C0B
:1089D0000870022F26D19DF80B209DF809109DF9F3
:1089E0000D0002F0EFF80446DFF87C06007868B965
:1089F000052C03D0062C09D1022000E00120DFF86D
:108A000068160870B81C8AF878070BE0DFF8940B3A
:108A10000078002814BF0328072C03D1DFF8841B3B
:108A2000401C0870DFF87C0B0078411E042900F21E
:108A3000D281DFE811F005007300D001E7005E018C
:108A4000DFF80006DFF8FC25D0F8601792F96427FC
:108A50000846491C49B200240B464FF0000C9142D5
:108A600080F2C281A2EB010E1EF00305DFF8501C5C
:108A70000CD05F1897F83879FF2F08BF0CF1010C64
:108A800001D007B1641C5B1C6D1EF2D15FEA9E0E23
:108A90002ED05D1895F83859FF2D08BF0CF1010C48
:108AA00001D005B1641C5B1C5D1895F83859FF2D89
:108AB00008BF0CF1010C01D005B1641C5B1C5D18F2
:108AC00095F83859FF2D08BF0CF1010C01D005B104
:108AD000641C5B1C5D1895F83859FF2D08BF0CF11C
:108AE000010C01D005B1641C5B1CBEF1010ED0D19C
:108AF00040B2101A4FFA8CF1401E814205D109296B
:108B000003DB64B2022CC0F26F8164B2052CC0F2A8
:108B10006B81DFF8901A0220087065E1DFF8240508
:108B2000D0F8601790F964370A46491C49B2002012
:108B30008E468446994280F257815D1A15F00307EC
:108B4000DFF87C1B00F012800EEB010B9BF838B9AC
:108B5000BBF1FF0F08BF401C04D0BBF1000F18BFD2
:108B60000CF1010C0EF1010E7F1EEDD1AD0835D0D8
:108B70000EEB010797F83879FF2F08BF401C02D091
:108B80000FB10CF1010C0EF1010E0EEB010797F87D
:108B90003879FF2F08BF401C02D00FB10CF1010C37
:108BA0000EF1010E0EEB010797F83879FF2F08BF81
:108BB000401C02D00FB10CF1010C0EF1010E0EEBB6
:108BC000010797F83879FF2F08BF401C02D00FB17A
:108BD0000CF1010C0EF1010E6D1EC9D152B2991AA1
:108BE00040B2491E884240F0FF800928C0F2FC8054
:108BF0004FFA8CF0022880F2F780DFF8A8190320E2
:108C00000870EBE0DFF83C04D0F8601790F96437A7
:108C10000A46491C49B200208E468446994280F299
:108C2000DD805D1A15F00307DFF8941A00F012805A
:108C30000EEB010B9BF838B9BBF1FF0F08BF401CCE
:108C400004D0BBF1000F18BF0CF1010C0EF1010EA6
:108C50007F1EEDD1AD0835D00EEB010797F83879BE
:108C6000FF2F08BF401C02D00FB10CF1010C0EF118
:108C7000010E0EEB010797F83879FF2F08BF401C53
:108C800002D00FB10CF1010C0EF1010E0EEB010739
:108C900097F83879FF2F08BF401C02D00FB10CF1B4
:108CA000010C0EF1010E0EEB010797F83879FF2F3A
:108CB00008BF401C02D00FB10CF1010C0EF1010EE7
:108CC0006D1EC9D152B2991A40B2491E884207D1CD
:108CD000092805DB4FFA8CFCBCF1020FC0F27E8044
:108CE0004FFA8CF0052879DBDFF8B81805200870FA
:108CF00074E0D448D0F8601790F964370A46491CEC
:108D000049B200208E468446994267DA5D1A15F012
:108D10000307DFF8AC1911D00EEB010B9BF838B943
:108D2000BBF1FF0F08BF401C04D0BBF1000F18BF00
:108D30000CF1010C0EF1010E7F1EEDD1AD0835D006
:108D40000EEB010797F83879FF2F08BF401C02D0BF
:108D50000FB10CF1010C0EF1010E0EEB010797F8AB
:108D60003879FF2F08BF401C02D00FB10CF1010C65
:108D70000EF1010E0EEB010797F83879FF2F08BFAF
:108D8000401C02D00FB10CF1010C0EF1010E0EEBE4
:108D9000010797F83879FF2F08BF401C02D00FB1A8
:108DA0000CF1010C0EF1010E6D1EC9D152B2991ACF
:108DB00040B2491E884211D109280FDB4FFA8CF0CE
:108DC00002280BDADFF8DC17062008700120DFF834
:108DD0001C1B087002E008B1032805DBDFF8C4079C
:108DE0000078001F022800D20724A34890F9000051
:108DF000002840F0A881954890F90000002800F074
:108E0000A281002C18BF032C40F09D819AF9AF037A
:108E1000002804BF9AF96317002900F094819DF897
:108E200008100246531A0B2BC0F2AF80A0F12903A1
:108E30003B2B80F0AA80DFF8003D03EB011138F9ED
:108E4000123051F8241C8B42BCBF39F912309942C0
:108E500080F29B8008EB4201B1F91E10002900F05E
:108E600094806C2100919DF808309DF80A209DF9AE
:108E70000C1001F091FB0446012C40F0868072201A
:108E800000909DF908009DF90A30C21E9AF8AF03C0
:108E9000C11C52B249B2404602F050F89AF962073A
:108EA000002865D09DF808109AF95CC7CB1E634571
:108EB0005EDA9AF95F0730BB772009F2EE01ACF178
:108EC000030300E0401E31F902299F2A01D08342AA
:108ED000F8DB83424CDA0A306E28C8BF6E2009EBFB
:108EE0004C0131F90A3C39F910108B4206DAACF129
:108EF0000502CDF8009012B200B22CE0642837DAF7
:108F00004A46002131E0604609EB4002154600E088
:108F1000401E35F902799F2F01D08342F8DB83424E
:108F200026DA00E0401E39F910509F2D01D183420E
:108F3000F8DBA0F10A039942B8BF19460846B2F916
:108F4000061039F91030DA1E914207DB02B2CDF873
:108F500000900CF1030001F017FF09E0BCF1640F71
:108F600006DA4A4600210CF10500C0B201F0CCFE41
:108F70009DF8080038F9101039F91000401800EB7E
:108F8000D0704010CAF88007F6E0002C40F0DB807B
:108F90009AF963079DF8082001468B1A0B2BC0F243
:108FA000D280A0F129033B2B80F0CD80DFF8883BF5
:108FB00003EB021239F9113052F8282C9A42BCBF47
:108FC00038F91130934280F2BE8009EB4101B1F9CA
:108FD0001E109F2900F0B780722100919DF8083083
:108FE0009DF80A209DF90C1001F0D6FA0446022CD7
:108FF00040F0A9806C2000909DF908009DF90A308E
:10900000C21E9AF86307C11C52B249B2484601F029
:1090100095FF9AF9AE03002800F089809DF80810AA
:109020009AF9A8C3CB1E634580F281809AF9AB03FD
:10903000002849D1772008F2EE01ACF1030324E0C7
:109040000D09FF1F7C86FF1F0809FF1F8695FF1F64
:10905000F882FF1FE883FF1FF877FF1F0000E03F43
:10906000D485FF1FD885FF1F8195FF1FD085FF1F67
:109070003C70FF1F3E70FF1F8595FF1F0820FE43B9
:109080008895FF1F1109FF1F401E31F902290AB1FF
:109090008342F9DB83424ADA0A306E28C8BF6E2069
:1090A00008EB4C0131F90A3C38F91010994206DA04
:1090B000ACF10502CDF8008012B200B22AE06428BB
:1090C00035DA424600212FE0604608EB40021546A3
:1090D00000E0401E35F902790FB18342F9DB83428B
:1090E00025DA00E0401E38F910500DB98342F9DB53
:1090F000A0F10A0308469842B8BF1846B2F9061014
:1091000038F91030DA1C8A4207DB02B2CDF8008051
:109110000CF1030001F038FE09E0BCF1640F06DA3F
:10912000424600210CF10500C0B201F0EDFD9DF8B2
:10913000080038F9101039F91000401800EBD07011
:109140004010CAF880079B4890F9000000281CBF17
:10915000012C022C10D00596049632469DF80A0088
:10916000019051469DF808000090DFF8D00903787F
:109170000AF56D7003F0EAFF9AF9AE0300281CBFF0
:109180009AF96207002807D034B9324651460AF5E9
:109190006D7001F06FFF044605985128A8BF059631
:1091A00004985128A8BF04960598451D642DC8BF92
:1091B00064250498471D642FC8BF6427002C18BF7E
:1091C000042C04D0032C18BF072C40F0BC8008EB03
:1091D000450030F9080C5B2810DA002C04BF681F2A
:1091E000B04254D108EB460009EB4601B0F9020049
:1091F000B1F9021001FA80F0A12848DBDFF840093C
:1092000090F9000018B9DFF83819681F0870424655
:109210000021E8B201F078FD681FB04240F0938071
:1092200005F10F01C9B239F9112005F10A00491EF3
:10923000C0B28142C0F20B8009EB4103B3F9007068
:109240009742B8BF3A46491E9B1E8142F6DAD2B217
:109250009F2A78D105F10A02964274DA901B09EB35
:10926000420110F0030204D09F2321F80239521E5C
:10927000FAD1800867D09F2221F8022921F802291B
:1092800021F8022921F80229401EF4D15BE009EB04
:10929000470030F9080C462810DB002C04BF781F6B
:1092A000B04250D108EB460009EB4601B0F902008C
:1092B000B1F9021001FA80F0A02844DADFF8800842
:1092C00090F9000018B9DFF87818781F08704A463E
:1092D0000021F8B201F018FD781FB04233D107F138
:1092E0000F01C9B238F9112007F10A00491EC0B2B6
:1092F00081420ADB08EB4103B3F90050AA42B8BF30
:109300002A46491E9B1E8142F6DAD2B2DAB907F12B
:109310000A02964217DA901B08EB420110F0030292
:1093200004D0002321F80239521EFAD180080AD055
:10933000002221F8022921F8022921F8022921F826
:109340000229401EF4D1DFF8FC274946404601F0CF
:10935000C9FD00F0B7F9DFF8E80790F9000001282F
:1093600003DADFF8DC17701C0870DFF8DC0790F90F
:109370000000032818BF072803D1DFF8C4173220E4
:109380000870DAF86857284604F09AFD00B2012800
:10939000B8BF4042DFF8B4170880DFF8B4070078A0
:1093A000002876D116F1010F40F08781DFF88C0795
:1093B00002E000BF8795FF1F90F90000204340F0B6
:1093C0007C812846002104F09DFD28BF85F00045E2
:1093D0002846DFF8801704F0A7FD80F06E81B9F908
:1093E0006400312109F26202B2F900309842B8BF3C
:1093F000184632F9023C491E9842B8BF184632F965
:10940000043C491E9842B8BF184632F9063C491E32
:109410009842B8BF1846491E083A1E29E4DAC0B27D
:109420009F2880F24A81B8F96400312108F2620273
:10943000B2F900308342B8BF184632F9023C491EE7
:109440008342C8BF0346481E32F9041C9942C8BF74
:109450001946431E32F9060C8842C8BF0846591EF9
:10946000083A1E29E4DAC0B2002800F026819AF9F1
:10947000AF032828BCBF9AF96307282880F21D8112
:109480009AF9A8032828BCBF9AF95C07282880F21B
:109490001481002403940025DFF8BC660AF67407E3
:1094A0004FF0050B36F9060C4F3804F083FC57F8E3
:1094B0000C1C04F099FC029036F9040C4F3804F0AF
:1094C00079FC57F8081C04F08FFC019036F9020C67
:1094D0004F3804F06FFC57F8041C04F085FC009032
:1094E00036F908094F3804F065FC57F8101904F0F4
:1094F0007BFC294604F02AFD009904F027FD019920
:1095000004F024FD029904F021FD0546BBF1010B96
:10951000C8D1DFF8481604F05BFD002104F0F2FC2E
:109520000D46DFF834660AF674074FF0050B3BD2A0
:1095300036F9060C4F3804F03DFC57F80C1C04F0CB
:1095400053FC029036F9040C4F3804F033FC57F802
:10955000081C04F049FC019036F9020C4F3804F065
:1095600029FC57F8041C04F03FFC009036F9080968
:109570004F3804F01FFC57F8101904F035FC294649
:1095800004F0E4FC009904F0E1FC019904F0DEFC35
:10959000029904F0DBFC0546BBF1010BC8D1DFF8F2
:1095A000BC153AE08095FF1F36F9060C4F3804F0E1
:1095B00001FC57F80C1C04F017FC029036F9040C5F
:1095C0004F3804F0F7FB57F8081C04F00DFC01902D
:1095D00036F9020C4F3804F0EDFB57F8041C04F088
:1095E00003FC009036F908094F3804F0E3FB57F804
:1095F000101904F0F9FB294604F0A8FC009904F0C6
:10960000A5FC019904F0A2FC029904F09FFC054618
:10961000BBF1010BC8D1DFF8481504F0D9FCDFF825
:10962000341504F081FC3ED209F1640008F16401B4
:109630000AF6C8125FF00703DDF80C8032F90279F0
:10964000B84432F90279B84407883C440F88E41BD7
:1096500030F8027C3C4431F8027CE41B30F8047C96
:109660003C4431F8047CE41B32F902794744891FF9
:10967000801F03975B1EDFD120B204F09BFB0446E2
:1096800003A8B0F9000004F095FB0146204604F061
:109690009FFCDFF8D0140860DFF8CC1404F032FC33
:1096A00098BF012000D90020DFF8A41408700878C2
:1096B00018B1DFF88C143220087007B0BDE8F08FC5
:1096C000DC66FF1F2DE9F04FDFF80C9CDFF80C0C77
:1096D000D9F868B7C9F86CB7002483B00757C7F149
:1096E000770077284FDADFF8F8AB09F6601617F045
:1096F00003050ED03AF902094F3804F05BFB56F827
:10970000041904F071FB214604F020FC04466D1E90
:10971000F0D1BD0800F037803AF9060C4F3804F05C
:1097200049FB56F80C1C04F05FFB01903AF9040C5D
:109730004F3804F03FFB56F8081C04F055FB00902E
:109740003AF9020C4F3804F035FB56F8041C04F0CB
:109750004BFB80463AF908094F3804F02BFB56F8CA
:10976000101904F041FB214604F0F0FB414604F0DF
:10977000EDFB009904F0EAFB019904F0E7FB6D1E94
:109780000446002DC8D1384604F014FB014620469B
:1097900004F01EFC8046594604F098FCDFF8A41B38
:1097A00004F0B0FB05D8DFF8AC03594604F0CEFB5B
:1097B0008046DFF8947B4046594604F087FC3946E2
:1097C00004F0B2FB03D2584604F0C0FB804640468A
:1097D000DFF8781B04F096FB98BFDFF8748B05D98F
:1097E000DFF8701B04F0A0FB38BF8846C9F8688713
:1097F00003B0BDE8F08FF0B4DFF85C0BDFF85C2B52
:1098000090F90040DFF8583B2146772004E0E55C02
:10981000FF2D18BF77280FD12546EE18002D17D43D
:1098200011D03778FF2F04D07778FF2F01D1132D77
:1098300009DB6D1E761EF1E72546EE18142D07DABA
:1098400016F8017B0FB1156002E06D1C8D42F5DB4F
:10985000CD5CFF2D18BF772811D1CC1814291ADA46
:10986000132917D02578FF2D06D014F8015CFF2DA1
:1098700002D109B113290DDB491C641CEEE7CD1898
:1098800000E0491E8C4206DA002904D415F801696B
:10989000002EF6D051601468142C3CBF5168142976
:1098A00022D264B249B2E55C812D06DBE5186D7801
:1098B000FF2D02D10CB1641C64B2CD5CED0708D55C
:1098C000CD1815F8015CFF2D03D113291CBF491ECB
:1098D00049B2152C18BF152906D08C4204DA401E57
:1098E000143B103A002892D5F0BC70478395FF1FB7
:1098F0002DE9F34F002181B0152BACBFD8B2142055
:1099000000904FF07708DFF85C2A01E0A8F1010829
:109910000098404580F20C814FEA081608EB880554
:10992000B058DFF8707C07EB85054519B61806E0DE
:10993000FF2F1EBF6F78FF2FB060401C6D1C776833
:10994000B8420DDAB768A02F2F78F1D0FF2FF4D0EE
:109950006F78FF2F1EBF471C7468A742EDD1F060DF
:10996000F068A02800F0E1804546A8F1010808EB66
:109970008800DFF8206C02EB081706EB800603E096
:10998000A8F10108143E103F434580F2C18097F8CA
:1099900018C03C69387FA44504BF0CF101045FFA8C
:1099A00084FC7C69A04204BF401EC0B21CF8064083
:1099B000FF2CE6460EEB060429D1704553DB14F864
:1099C000019BB9F1FF0F4CD10EF1010E70454ADB3E
:1099D00014F8019BB9F1FF0F43D10EF1010E704550
:1099E00041DB14F8019BB9F1FF0F3AD10EF1010EE2
:1099F000704538DB14F8019BB9F1FF0F08BF0EF179
:109A0000010EDAD02DE000BFAEF1010E641ED7F8D2
:109A10000090CE4527DB94F800A0BAF1FF0F13D0D9
:109A200014F801BC09F1010ABBF1FF0F01D1F245A5
:109A300017DBD64508D10EEB060414F8014CE407F9
:109A40000FD4AEF1010E0CE0CE45DDD194F80190BB
:109A5000B9F1FF0FD8D01EF80640E40748BF0EF159
:109A6000010EC7F808E0845DFF2C1FD100EB060E45
:109A7000604546DB1EF80149FF2C41D1401E604580
:109A80003FDB1EF80149FF2C3AD1401E604538DB10
:109A90001EF80149FF2C33D1401E604531DB1EF812
:109AA0000149FF2C08BF401EE2D029E000EB060C64
:109AB00002E0401C0CF1010CD7F804E0864520DBE5
:109AC0009CF80040FF2C10D09CF80190AEF10104EE
:109AD000B9F1FF0F01D1A04212DBA04205D18419D8
:109AE0006478802C0CDA401C0AE07045E1D11CF847
:109AF00001ECBEF1FF0FDCD0845D802CA8BF401EBE
:109B0000F860B868A0281CBFF868A0287FF438AFB8
:109B100008F10100EDB2C0B22E1A052E05DB019E40
:109B20008D55029D4855491C49B20229FFF6EEAEFB
:109B3000084603B0BDE8F08FFC8DFF1F8695FF1F20
:109B40000D09FF1FD884FF1F8595FF1F7C95FF1F00
:109B50008295FF1F000070415085FF1F0000A0414B
:109B60000000A0C1C885FF1F9B99993F2DE9FF4FB9
:109B70008AB0002002900021DFF8E807DFF8144ADD
:109B800090F97007031905AD93F84C490FF254731F
:109B9000C0CBC0C505AEE709F771A022A70907F041
:109BA0000107B771083B670907F0010777710D4698
:109BB000270907F001073771E70807F00107F77079
:109BC000A70807F00107B770670804F001048DF8D3
:109BD000144007F001079DF914407770002C0BD159
:109BE00000E06D1E6DB2AF570FB9002DF9D5002DF5
:109BF00008D5002506E06D1C6DB2AF570FB1082DDA
:109C0000F9DB6D1E401CC5EBC000401EDFF8AC4AFE
:109C1000DFF88059C0B2C4F87007DFF8A44AA4F88E
:109C2000EE00DFF8400790F974074419C0CB94F8B0
:109C30004C4905AD083BC0C505AEE709F7710725DE
:109C4000A70907F00107B771670907F001077771E6
:109C5000270907F001073771E70807F00107F770D8
:109C6000A70807F00107B770670804F0010407F0C0
:109C700001078DF8144077707457002C0BD100E069
:109C80006D1C6DB2AF570FB9082DF9DB082D08DB3D
:109C9000072506E06D1E6DB2AF570FB1002DF9D547
:109CA0006D1C401CC5EBC000401EDFF8104AC0B25E
:109CB000C4F874077626DFF80C4AA4F8EE000DF11C
:109CC0001409179808AD7628C0F22F819DF9340049
:109CD0000128C0F2FB82C0B207900DF1000900AD6F
:109CE00002980A9EDFF87C7686573001C71906EB8A
:109CF000860C97F90840DFF89C6806EB8C06B3E801
:109D0000000514F806E00DF1000C083BACE8000576
:109D10004FEADE1A8DF807A04FEA9E1C0CF0010AEC
:109D20008DF806A04FEA5E1C0CF0010A8DF805A024
:109D30004FEA1E1C0CF0010A8DF804A04FEADE0C5D
:109D40000CF0010A8DF803A04FEA9E0C0CF0010AFA
:109D50008DF802A04FEA5E0C0CF0010A9DF907C0D5
:109D60008DF801A00EF0010E4FF007088DF800E00D
:109D7000BCF1000F40F024810EE1504502D3E4B263
:109D8000A02C00D188464FEADC14EC714FEA9C14F9
:109D900004F00104AC714FEA5C1404F001046C712E
:109DA0004FEA1C1404F001042C714FEADC0404F0A7
:109DB0000104EC704FEA9C0404F00104AC704FEA1B
:109DC0005C0404F001046C700CF001048DF8204078
:109DD00018F90540002C11D1B8F1000F07D4A8F1F3
:109DE00001044FFA84F818F90540002CF4D0B8F1BA
:109DF000000F0DD588460BE008F101084FFA88F8EE
:109E000018F9054014B1B8F1080FF5DBA8F1010805
:109E1000401CC8EBC000401EDFF8A048C0B238515B
:109E2000DFF89C4824F81600DFF898489EF90400F3
:109E3000DEF814C004EB4604B4F802E0039C10F80A
:109E40000480B3E8000C05AC083BA4E8000C0EF05D
:109E500007045FFA8CFCC0B2C4F10704844504D344
:109E60005FFA8EFEBEF1A00F01D1072402E060452B
:109E700038BF00244FEAD81C89F807C008F0010E4B
:109E80004FEA981C0CF0010C89F806C08DF814E01C
:109E90004FEA581C0CF0010C89F805C04FEA181C59
:109EA0000CF0010C89F804C04FEAD80C0CF0010C3E
:109EB00089F803C04FEA980C0CF0010C89F802C035
:109EC0004FEA580C0CF0010C89F801C014F909C0D4
:109ED000BCF1000F0DD1082C06DA641C64B214F931
:109EE00009C0BCF1000FF6D0082C0BDB072409E0F9
:109EF000641E64B214F909E0BEF1000F01D0002C19
:109F0000F6D5641C401CC4EBC000DFF8B047401E0F
:109F10002744C0B27860DFF8AC7727F81600761EC9
:109F2000179876B2B042BFF6D1AE3701DFF83444AD
:109F3000DFF83004DFF85C86385607EB040EDEF8F5
:109F400010408DF81040DFF8784704EB460CBCF861
:109F5000024006EB860C08EB8C08CDF80C8010F85C
:109F600008C0B3E8000C0DF12008083BA8E8000C7D
:109F70009DF810A004F00708C0B2C8F10708824598
:109F8000BFF4FBAEE4B2A02C3FF4FCAE4FF00708E8
:109F9000F9E600BF08F101084FFA88F80DF1000E4C
:109FA00018F90EE0BEF1000F02D1B8F1080FF1DB95
:109FB000B8F1080F12DB4FF007080FE0A8F1010815
:109FC0004FFA88F80DF1000E18F90EE0BEF1000FFF
:109FD00002D0B8F1000FF1D508F10108DFF8DCC6B6
:109FE00000EB0C0E601CC8EBC000401EC0B2CEF8E7
:109FF000080097F90C00865DB3E8001100AFF40982
:10A00000A7E800118DF80740083BB40904F00104EB
:10A010008DF806400027740904F001048DF805400E
:10A02000340904F001048DF80440F40804F001043C
:10A030008DF80340B40804F001048DF80240740860
:10A0400006F001068DF8006004F001049DF900603F
:10A050008DF8014066B900E07F1E7FB200AEBE57AA
:10A060000EB9002FF8D5002F09D5002707E07F1C77
:10A070007FB200AEBE570EB1082FF8DB7F1E401C2A
:10A08000C7EBC000401EC0B2CEF80C000A9E02987A
:10A0900080570B9F461E0298C05D76B2B6EB000F4C
:10A0A000C0F20481AF48DFF8144600EB061E9EF9AB
:10A0B0000800DEF818708DF8107006EB860C04EBC3
:10A0C0000617DFF8D044D7F8188004EB8C0403940B
:10A0D00010F804C0B3E8000C00AC083BA4E8000C86
:10A0E0009DF810A008F00704C0B2C4F1070482452F
:10A0F00004D35FFA88F8B8F1A00F01D1072402E079
:10A10000504538BF00244FEADC1885F807804FEA35
:10A110009C1808F0010885F806804FEA5C1808F0E2
:10A12000010885F805804FEA1C1808F0010885F839
:10A1300004804FEADC0808F0010885F803804FEA44
:10A140009C0808F0010885F802804FEA5C0808F0D6
:10A15000010885F801800CF001088DF8008014F9E1
:10A1600005C0BCF1000F0DD1082C06DA641C64B2E6
:10A1700014F905C0BCF1000FF6D0082C0BDB072446
:10A1800009E0641E64B214F90580B8F1000F01D033
:10A19000002CF6D5641C401CC4EBC000401EC0B2AD
:10A1A000B860039C9EF90C00DEF81CC010F8048017
:10A1B000D7F81CE0B3E8000C00AC083BA4E8000CA6
:10A1C0000EF007045FFA8CFCC0B2C4F107048445AA
:10A1D00005D25FFA8EF4A02C08D0072407E0604572
:10A1E00004D35FFA8EFEBEF1A00F00D100244FEA27
:10A1F000D81C89F807C008F0010E4FEA981C0CF033
:10A20000010C89F806C08DF800E04FEA581C0CF0EC
:10A21000010C89F805C04FEA181C0CF0010C89F8F4
:10A2200004C04FEAD80C0CF0010C89F803C04FEAC7
:10A23000980C0CF0010C89F802C04FEA580C0CF095
:10A24000010C89F801C014F909C0BCF1000F0DD14F
:10A25000002C06D4641E64B214F909C0BCF1000FCE
:10A26000F6D0002C0BD5002409E0641C64B214F96C
:10A2700009E0BEF1000F01D0082CF6DB641E401C83
:10A28000C4EBC000401EC0B2F860C9B2BC68001B7D
:10A29000814203DAF868B9683246411A02980B9F86
:10A2A000C05D761E76B28642BFF6FCAEC9B20B29FF
:10A2B00007DB02980C99425400210298401C40B2DE
:10A2C00002900798401E07907FF40AAD0298C0B232
:10A2D0000EB0BDE8F08F0000F877FF1FCC85FF1FA0
:10A2E000C685FF1F0000000000000000401E40B2B5
:10A2F000814200DB7047F0B402EB400532F9106098
:10A30000B5F90270431CBE42BABF1E46034606465C
:10A3100035F9024C32F9165032F91330AC4205DAF5
:10A32000A342A8BF1C4622F8104004E0AB42B8BFCD
:10A330002B4622F81030401E40B28142DCDBF0BCDC
:10A340007047000001007041000070C10100164319
:10A3500000001643000016C30809FF1FEC8DFF1F05
:10A360002870FF1F7C86FF1FF0B4002480F8AF43E5
:10A370001029B8BF0F216C2B17D17323994234DAFF
:10A3800002EB4305B5F9086032F9134035F9085C72
:10A39000361B651B06FB05F7002F02D416B9032DEB
:10A3A00000DBFCB95B1E5BB2E8E773236FF00104CE
:10A3B00001E05B1E5BB2994217DA02EB4306B6F985
:10A3C000087032F9135036F9086C7F1BAE1B07FB7F
:10A3D00006FCBCF1000F03D4002FEAD1A642E8DA54
:10A3E0009F2DE6D0D91E80F8AF13F0BC70472DE941
:10A3F000F44F054682B0002685F8A863894685F8A3
:10A40000A96385F8AA63B9F1150FB8BF4FF0140915
:10A41000722708E02CB94FF0814103F085FD38BF69
:10A420000124781E47B2B9455ADA05EB870ADAF8F3
:10A430000800DAF8041003F089FD55F8271003F03E
:10A4400085FDDFF8781B03F0C3FD05EB870180462F
:10A45000C1F8D801DAF804B055F82700DAF8081086
:10A460000091414603F032FE82465846414603F0D1
:10A470002DFE83460098414603F028FE014603F076
:10A48000B3FC80465846594603F0AEFC414603F003
:10A490005DFD80465046514603F0A6FC414603F060
:10A4A00055FDDFF8181B03F093FDDFF8141B03F0D4
:10A4B00029FD64B2AED8002CADD07119B81C81F85A
:10A4C000A8033EB140B291F9A713081A0528BCBFF2
:10A4D000761E76B2761C76B2032EB8BF0024A0DBBF
:10A4E00085F8AE639DF908006C282AD1002E4ED065
:10A4F000761E76B2701990F9A813DFF8C40100EB4C
:10A500004100A0F10A0200F20601B2F90430B2F9EA
:10A510000220D21830F90A3CB0F90600D218B1F97D
:10A520000230B1F90410181840188242B4BF01205B
:10A5300000207119002E81F8AB03D9D103B0BDE81A
:10A54000F08F26B3761E76B2701990F9A8135D4885
:10A5500000EB4100A0F10A0200F20601B2F904305A
:10A56000B2F90220D21830F90A3CB0F90600D2182C
:10A57000B1F90230B1F90410181840188242B4BF82
:10A58000002001207119002E81F8AB03DAD103B04D
:10A59000BDE8F08FDC66FF1F2DE9F047064600247A
:10A5A00006F10A0519466E2DBABF0A30C0B26E20F8
:10A5B0009DF920506C2D434D41D1414D01E0401E8D
:10A5C000C0B235F91090B9F1000F01D18642F6DB27
:10A5D00005EB4605861BB5F90650A5EB0908374D76
:10A5E00005EB011505F1080CA6F1030E05E0AA45DF
:10A5F000B8BF641C491EACF1100C914215DB461A21
:10A6000006FB08F696FBFEF64E44A02E52D2DCF86E
:10A610000450751BAA4648BFCAF1000ADCF8007056
:10A62000F51B012DB8BFBD1BE1E7981A401CB0EB2C
:10A63000440F3FDA0120BDE8F087401EC0B235F973
:10A640001090B9F19F0F01D18642F6DB05EB46056C
:10A65000861BB5F90650A5EB0908184D05EB011549
:10A6600005F1080CA6F1030E0CE000BFDCF8047045
:10A67000F71B3E4648BF7642B542B8BF641C491E30
:10A68000ACF1100C91420EDB461A06FB08F696FB65
:10A69000FEF64E44A02E0DD2DCF80070F51B012D05
:10A6A000B8BFBD1BE2E7981A401CB0EB440FB8BF1F
:10A6B000022000DB0020BDE8F0870000FC8DFF1FBA
:10A6C000F882FF1FE883FF1F2DE9F04FFFB083469C
:10A6D0004FF0000942A8F02103F06CFD06A80FF22C
:10A6E000F431F02203F07AFDDFF83C0B90F96307B8
:10A6F0000190C846DFF8300B90F9AF0302900024B8
:10A70000123047B201981230C24645B2772FA8BF27
:10A710007727772DA8BF77250298DFF8101B01EB6C
:10A720004000C088ADF80C00029831F91710C61C23
:10A73000BDF90C00401A03F03DFB0090F01B03F044
:10A7400039FB0146009803F043FCDFF8E41A04905B
:10A75000019801EB4000B0F9067031F91500C01BFB
:10A7600003F028FB00900198281AC01E03F022FB7A
:10A770000146009803F02CFC0090BDF90C0003F09A
:10A7800019FB0546304603F015FB049903F02CFB3A
:10A790000146284603F09AFC0546384603F00AFBBA
:10A7A00006460198C01C03F005FB009903F01CFB52
:10A7B0000146304603F08AFC039002A8065F42A8D7
:10A7C00000EB460702E0701E06B2BF1E002E0FD43B
:10A7D000304603F0EFFA049903F006FB294603F034
:10A7E000B5FB03F06DFB3880B7F90200A028EAD36F
:10A7F00001A8055F06A800EB450602E0681E05B249
:10A80000B61E002D0FD4284603F0D4FA009903F0A9
:10A81000EBFA039903F09AFB03F052FB3080B6F990
:10A820000200A028EAD30298DFF8086AC01E00B22E
:10A8300042A901EB400102E0401E00B2891E00283F
:10A840000FD400EB8002B1F9023006EB42129B18E4
:10A8500093F8A030FF2B02BF0B5F9A5C002AEBD16C
:10A8600080460198C21E12B206A800EB420102E027
:10A87000521E12B2891E002A0FD402EB8200B1F9D7
:10A88000023006EB40101B1893F8A030FF2B02BFDC
:10A890000B5F185C0028EBD192464046D045C8BFFC
:10A8A00050460BF10A0105908842C0F20E81B8F1C2
:10A8B000000F18BFBAF1000F7DD006A842A930F9E9
:10A8C000123031F912505B1B0B2B74DB30F91AB0CC
:10A8D00031F91850C2451DD12F4602EB820006EB1C
:10A8E0004010BB4562DB395C6418791C0AB29345A1
:10A8F0005CDB115C6418511C0AB2934556DB115C99
:10A900006418511C0FB2BB45EDDA24B2FF2094FB52
:10A91000F0F451E0ABEB050003F00CF906460F46EE
:10A92000AAEB080003F006F902460B46304639460A
:10A9300003F080FC03F0F6F981462F46404603F011
:10A9400039FA0390BB45DFF8EC682FDB781B03F086
:10A9500031FA494603F03CFB0146039803F0F6FA4E
:10A9600003F0AEFA40B200EB800106EB4110385C18
:10A9700054FA80F4781C07B2BB4517DB781B03F050
:10A9800019FA494603F024FB0146039803F0DEFA66
:10A9900003F096FA40B200EB800106EB4110385C00
:10A9A00054FA80F4781C07B2BB45CFDA24B2FF20FA
:10A9B00094FBF0F400E00A24C245B9BF4246404689
:10A9C00052465046102831DBB8EB0A0048BF4042DF
:10A9D0000F282BDA019802998842B8BF08460599DA
:10A9E000401A102822DB24B204BB4846DFF8E41BDF
:10A9F00003F088FA04D94FF0404103F095FA15D2DC
:10AA00000498002103F090FA10D8DFF8CC1B03F073
:10AA100079FA0BD80098002103F074FA06D8DFF811
:10AA2000BC1B03F081FA38BF04204FD3DFF8F817BE
:10AA300001EB42016420B1F9641914FB00F090FBB2
:10AA4000F1F05B38132840D2029801998842C8BFC0
:10AA50000846801A102838DBC8B2DFF8D41731F95D
:10AA60001010401E5FFA8AF4A0420CDBDFF8C0270A
:10AA700002EB4002B2F900309942B8BF1946401EBD
:10AA8000921EA042F6DAC9B29F291ED10298DFF8C1
:10AA90009C17C0B231F91010401E5FFA88F4A04232
:10AAA000C0F20D80DFF8842702EB4002B2F90030DB
:10AAB0008B42B8BF1946401E921EA042F6DAC9B2B8
:10AAC00019B903207FB0BDE8F08F00207FB0BDE84A
:10AAD000F08F00009F000000000000000000000058
:10AAE0000000000000000000000000000000000066
:10AAF0000000000000000000000000000000000056
:10AB00000000000000000000000000000000000045
:10AB10000000000000000000000000000000000035
:10AB20000000000000000000000000000000000025
:10AB30000000000000000000000000000000000015
:10AB40000000000000000000000000000000000005
:10AB500000000000000000000000000000000000F5
:10AB600000000000000000000000000000000000E5
:10AB700000000000000000000000000000000000D5
:10AB800000000000000000000000000000000000C5
:10AB900000000000000000000000000000000000B5
:10ABA00000000000000000000000000000000000A5
:10ABB0000000000000000000000000000000000095
:10ABC000000000002DE9F44F4FEA0018DFF810AA4A
:10ABD00008EB0A0281B058F80A305668F318DFF81B
:10ABE000046A58F806708DF8007003EBD37308EB15
:10ABF000060758F8064097F904C0DB05641C1B16CD
:10AC000065B22C464FF0000E654539DA00EB800B3B
:10AC1000ACEB0509DFF8D00919F0030500EB8B0058
:10AC200000F00C8014F800B0BBF1000F1CBFBBF1AA
:10AC3000FF0F0EF1010E641C6D1EF3D15FEA99093E
:10AC40001ED0255C002D1CBFFF2D0EF1010E641CD3
:10AC5000255C002D1CBFFF2D0EF1010E641C255C30
:10AC6000002D1CBFFF2D0EF1010E641C255C002D74
:10AC70001CBFFF2D0EF1010E641CB9F10109E0D1DA
:10AC8000F868BC687F6858F80660001B801CBE1B13
:10AC9000B04210DB9DF90000ACEB000000EBD0707F
:10ACA00040104FFA8EFE704505DAA1F15B001328C3
:10ACB00038BF072024D3D068966858F80A40801B14
:10ACC00056684000341BA042BCBF4FFA8EFEBEF156
:10ACD000030F14DA9DF80400081A0B28A8BF1F29D7
:10ACE0000DDB9068A3F10A018842A8BF062007DAAD
:10ACF000D16803F10A008842A8BF052000DA0020CD
:10AD000002B0BDE8F08F00002DE9F04D07469046F7
:10AD10003D4608EB450A82B038F91560BAF90A00D9
:10AD20000C46301A02F006FF0022DFF8C03803F0AC
:10AD300081FA02F0F7FF002103F0A0FB834604D163
:10AD4000002E0CBF9F2E00201BD17E1E76B2A64285
:10AD500016DB681EB0EB060708EB46083AF8045C01
:10AD6000384603F027F8594603F03EF803F0A8F8F8
:10AD7000761E401976B27F1C28F80209A642EDDA49
:10AD8000012002B0BDE8F08D2DE9F04F81B00446FE
:10AD90000D46E81A06B2DDF828901746002E7DD041
:10ADA000E01B02F0C7FE82468B46304602F0C2FE30
:10ADB00002460B465046594603F03CFA02F0B2FFF9
:10ADC0000646204602F0F6FF8246284602F0F2FFD1
:10ADD000314603F009F80146504603F077F905467D
:10ADE0003046002103F04AFB78D0611E09B20C46C0
:10ADF0008F4273DACF1B17F0030810D020B202F095
:10AE0000D9FF294603F062F9314603F0E1F803F077
:10AE100057F829F81400641EB8F10108EED1BF08F4
:10AE20005CD020B202F0C6FF294603F04FF931464C
:10AE300003F0CEF803F044F829F81400641E20B2A1
:10AE400002F0B8FF294603F041F9314603F0C0F89B
:10AE500003F036F829F81400641E20B202F0AAFFAD
:10AE6000294603F033F9314603F0B2F803F028F82D
:10AE700029F81400641E20B202F09CFF294603F05A
:10AE800025F9314603F0A4F803F01AF829F8140064
:10AE9000641E7F1EC5D101B0BDE8F08F611E09B2EE
:10AEA0000C468F421ADAC81B10F0030100F005802F
:10AEB00029F81450641E491EFAD1800800F00E8053
:10AEC00029F81450611E29F81150491E29F8115013
:10AED000491E29F811504C1E401EF1D101B0BDE8A9
:10AEE000F08F000030B400F2EE0001F2EE0102F249
:10AEF000EE027823B0F90040B1F90050002C07D0E1
:10AF00009F2D07D1012C0BDB9F2D0FD140340CE07E
:10AF10009F2DF7D105FA84F404EBD474641004E097
:10AF200024B90C5F9F2C01DA403C1480921E891ECC
:10AF3000801E5B1EDED130BC70470000F0B581B0D2
:10AF400007461C4608469DF91830DFF8941600970E
:10AF5000154601EB05164FEA001C6C2B16D1614417
:10AF6000B36849681BB209B2FFF70EFFA54223DBA5
:10AF700007EB450006F1080151F8102920F80229D5
:10AF80006D1E2DB2A542F7DA01B0F0BDF3685CF892
:10AF900001101BB209B2FFF7F7FEA542C0F20C8008
:10AFA00007EB450006F10C0151F8102920F80229A1
:10AFB0006D1E2DB2A542F7DA01B0F0BD0000404091
:10AFC0000100804070B4DFF82806DFF82816DFF8AB
:10AFD0002826DFF82836DFF828462825A0261E6018
:10AFE0005E609E60DE6026606660A660E6609F260A
:10AFF00020F80269002621F80269502622F8026929
:10B00000A02643F8106C43F80C6C43F8086C43F826
:10B01000046C44F8106C44F80C6C44F8086C44F868
:10B02000046C9F2620F80269002621F80269502648
:10B0300022F80269A02643F8206C43F81C6C43F800
:10B04000186C43F8146C44F8206C44F81C6C44F8F9
:10B05000186C44F8146C303C9F2620F80269303B91
:10B06000002621F80269502622F802696D1EB5D12A
:10B0700070BC70472DE9F04100231A4682B00027CA
:10B080001C461546164604E07C187F1C94F9A8431C
:10B090003FB291F9AEC367452EDA07EB010E9EF978
:10B0A000ABE3BEF1000F1BD07C187F1C94F9A843C2
:10B0B0003FB2674520DA07EB010E9EF9ABE3BEF124
:10B0C000000F0DD07C187F1C94F9A8433FB2674550
:10B0D00012DA07EB010C9CF9ABC3BCF1000FD3D122
:10B0E000791891F9A8233AB134B9772404E01918F2
:10B0F0005B1C91F9A8531BB290F9AE138B4220DA76
:10B100001F1897F9AB73B7B11D185B1C95F9A853BD
:10B110001BB28B4215DA1F1897F9AB735FB11D187C
:10B120005B1C95F9A8531BB28B420ADA191891F9E6
:10B13000AB130029DBD1181890F9A8630EB105B93B
:10B1400077252346002193420CDB384F07EB43075A
:10B15000B7F900000528B8BF491C5B1EBF1E58B2D6
:10B160009042F5DAA31A03EBD3735B10C9B28B429A
:10B1700055DA2F460021B742C0F21080DFF8840470
:10B1800000EB470CBCF900009B28A8BF491C7F1EA0
:10B190004FFA87FEACF1020CB645F3DAAF1B07EBB2
:10B1A000D7777F10C9B28F4239DA291B48BF49428D
:10B1B000142934DAB11A48BF494214292FDA601D24
:10B1C0007828ACBF7724641D521F681D12B27828FE
:10B1D000ACBF77256D1D154830F9141030F91230C9
:10B1E000761F36B299421ADADFF8188438F916C099
:10B1F0002F4638F917E0F44511DA00902046FFF7A2
:10B20000C3FDCDF8008038F9163038F917103246F2
:10B210002846FFF7B9FD032002B0BDE8F081002009
:10B2200002B0BDE8F0810000F877FF1FF882FF1F31
:10B23000E883FF1FDC1BFF1F2DE9F0430E46DFF8FC
:10B24000C8130B7881B0012B40F0E1800525DFF8B1
:10B25000BC3300286ED0B3F97C47B442B8BF5A2E35
:10B2600068DA9442B8BF1446A3F87C471446DFF866
:10B27000A013DFF890930F68DFF86423A01900EBA8
:10B28000D070401039F9101002EB0010C068081A95
:10B2900002F090FD394602F0A7FD02F011FEDFF842
:10B2A0007413DFF87473B9F9EE30B7F9EE20088043
:10B2B000A3EB020C00B26045A8BF981A088006F103
:10B2C00028007728C8BF7720A042C0F27E810028DE
:10B2D00000F17B81B1F9002037F81030D31827F83E
:10B2E0001030401EA042C0F27081002800F16D8134
:10B2F00037F81030D31827F81030401EA042C0F2A3
:10B300006481002800F1618137F81030D31827F8E4
:10B310001030401EA042C0F2588100285FBF37F8AD
:10B320001030D21827F81020401ECDD568B201B0D9
:10B33000BDE8F08393F9AE030228C0F23F8193F990
:10B34000AB03002804BF93F9AC03012840F0368119
:10B3500093F9A843B3F97C07A042B8BF5A2C80F2F6
:10B360002D8193F9A903AA49AB4F0E68DFF8949297
:10B3700044FA80F000EBD070401039F9101037F922
:10B380001000081A02F016FD314602F02DFD02F001
:10B3900097FDA049B7F9EE20B9F9EE3008809E1A62
:10B3A00000B2B042A8BF981A088004F1280077289C
:10B3B000C8BF7720B0EB040FC0F20781B1F90020BD
:10B3C00037F81030D31827F81030401EA042C0F2D2
:10B3D000FC8037F81030D31827F81030401EA042F8
:10B3E000C0F2F38037F81030D31827F81030401E21
:10B3F000A042C0F2EA8037F81030D21827F81020A7
:10B40000401EA042DADA68B201B0BDE8F083022B38
:10B4100040F0DB8006257D4B002869D0B3F97C47DE
:10B42000B442B8BF5A2E63DA9442B8BF1446A3F8A8
:10B430007C4714467649DFF8E0810F686849A01917
:10B4400000EBD070401001EB001138F91000896852
:10B45000081A02F0AFFC394602F0C6FC02F030FDDB
:10B460006C49684FB8F9EE20B7F9EE300880A3EBCD
:10B47000020C00B26045A8BF981A088006F12800A7
:10B480007728C8BF7720A042C0F29F80002800F133
:10B490009C80B1F9002037F810309B1A27F8103043
:10B4A000401EA042C0F29180002800F18E8037F843
:10B4B00010309B1A27F81030401EA042C0F2858041
:10B4C000002800F1828037F810309B1A27F81030DE
:10B4D000401EA04279DB00285FBF37F810309A1A6F
:10B4E00027F81020401ECED568B201B0BDE8F08329
:10B4F00093F96207022861DB93F95F07002804BF14
:10B5000093F96007012859D193F95C47B3F97C0797
:10B51000A042B8BF5A2C51DA93F95D073C493E4F1F
:10B520000E68DFF8E09044FA80F000EBD070401035
:10B5300039F9101037F91000081A02F03BFC3146B7
:10B5400002F052FC02F0BCFC3249B7F9EE20B9F926
:10B55000EE3008809E1A00B2B042A8BF981A088048
:10B5600004F128007728C8BF7720A042C0F22D80C0
:10B57000B1F9002039F810309B1A29F81030401E1C
:10B58000A04222DB39F810309B1A29F81030401EF7
:10B59000A0421ADB39F810309B1A29F81030401EEF
:10B5A000A04212DB39F810309A1A29F81020401EF8
:10B5B000A042DDDA68B201B0BDE8F0830020A3F854
:10B5C0007C07087083F87807002568B201B0BDE8F1
:10B5D000F083000001000040000080BF0100803FB8
:10B5E000FC8DFF1F7C86FF1FDC66FF1F00001440E0
:10B5F000D684FF1FE683FF1FC685FF1FEC8DFF1F4C
:10B600006C95FF1FE883FF1F8195FF1FF877FF1FD1
:10B61000D085FF1F3C70FF1FF882FF1F2DE9F04F00
:10B6200000251646DC1C85B0B442BABFDB1C8DF881
:10B6300008308DF8082000F10108B8F1060FB8BFF6
:10B640004FF00508DFF8600C4057052880F28A8526
:10B65000012818BF042840F0CD80DFF8509C002955
:10B660004CD01A2E4ADBDFF8480CDFF8487C027019
:10B6700097F963078242B4BFC41C7724F51E87F88C
:10B680007957DFF834AC9DF808700AEB051009EB28
:10B69000450800F1080BBE1C02E06D1EABF1100B5B
:10B6A000DBF83000DBF8001039F91470401A02F0B2
:10B6B00041FA0022DFF8043C02F0BCFDCDE90001B4
:10B6C00038F90209381A611B90FBF1F002F032FAE6
:10B6D000DDE9002302F0E0FE01D2AE42DDDB0AEB41
:10B6E00005108068B84281F20A836C2000906AB22B
:10B6F0009DF9083061B2484600F088BDDFF8B47BA0
:10B7000097F9631729B197F979278A4201DA012855
:10B7100000D077210C4600E0491E39F911009F281E
:10B7200005D08845F8DB39F911009F2803D18845F9
:10B73000B8BF491EF7DB8D1E09EB450701E06D1E02
:10B74000BF1EB7F900B0B7F9060039F91460A0EBD5
:10B750000B0002F0EFF90022DFF8603B02F06AFD17
:10B76000CDE90001A6EB0B00611B90FBF1F002F0AC
:10B77000E1F9DDE9002302F08FFE01D2A845DEDB0E
:10B7800039F91530B34231DB2546DFF8542D02EB91
:10B79000450000E06D1E30F9021909B1A845F9DB3A
:10B7A00032F9150018B9A845B8BF6D1EF8DB02EBD9
:10B7B0004507B7F90600002841F0A182EA1CCDF840
:10B7C0000090002312B231462046FFF7DDFAA81D93
:10B7D0004A460021C0B2FFF797FAE81C804581F283
:10B7E0008B82A0EB080007F20601D7E2CDF80090AB
:10B7F00000F0ADBD022840F0E982DFF8B87A0029F8
:10B8000000F0FE801A2EC1F27782DFF8ACAADFF8D2
:10B810009C9AB9F9EE300AEB061050F8081C9942D0
:10B8200081F26A82782187F879179DF808703D4681
:10B83000AE420CDB0AEB051309EB450113F10803DB
:10B8400053F8104B21F8024B6D1CAE42F8DAB9F9EF
:10B85000EE5050F8080C281A511E0FFA80FB0CB25B
:10B86000BBF1000F7BD0C4F1770002F063F9CDE9A2
:10B870000001584602F05EF902460B46DDE9000180
:10B8800002F0D8FC02F04EFA0090284602F092FA3C
:10B89000009902F0A9FA0146DFF8480C02F016FC04
:10B8A00001900021009802F0E9FD71D07625762CF8
:10B8B0006EDAC4F17600039009F1EC0B10F003048A
:10B8C0000FD028B202F076FA019902F0FFFB00993E
:10B8D00002F07EFB02F0F4FA6D1E2BF80209641EE2
:10B8E000EFD10398840853D028B202F063FA01998B
:10B8F00002F0ECFB009902F06BFB02F0E1FA2BF88E
:10B9000002096D1E28B202F055FA019902F0DEFB21
:10B91000009902F05DFB02F0D3FA2BF802096D1ECC
:10B9200028B202F047FA019902F0D0FB009902F028
:10B930004FFB02F0C5FA2BF802096D1E28B202F087
:10B9400039FA019902F0C2FB009902F041FB02F0C2
:10B95000B7FA6D1E2BF80209641EC5D118E0762CCB
:10B9600016DAC4F1760009F1EC0110F0030203D0FD
:10B9700021F80259521EFBD1800809D021F8025942
:10B9800021F8025921F8025921F80259401EF5D137
:10B99000DFF84C1B01EB470030F90A1CB0F9062018
:10B9A000891A0AEB0712D36992699A1A8A4224DA31
:10B9B0001F2922DBF91C884518DAA1EB080100F2E7
:10B9C000060011F0030204D0002320F80239521EB1
:10B9D000FAD189080AD0002220F8022920F8022989
:10B9E00020F8022920F80229491EF4D19DF8080008
:10B9F0004A460021C01C00F0CBBD4A4600F0C5BD40
:10BA000097F97907782823D097F95C072928C1F29C
:10BA1000738197F95F27002A41F06E817722002316
:10BA200078280CDADFF8C09A39F901409B2CA8BFBE
:10BA30005B1C521E54B2A9F102098442F4DAC0F12F
:10BA4000770000EBD0704010DBB2984281F2548155
:10BA500097F96207002800F0BB8097F95C0797F917
:10BA6000A813814280F2B48097F95F1709B91A28A8
:10BA700006DA97F9600720B997F95D071A2800DB05
:10BA8000C51EE81C1A28C0F2A380DFF82098B9F977
:10BA9000EE6039F81500301A0FFA80FA2CB2BAF1BC
:10BAA000000F7BD0C4F1770002F044F8CDE900012B
:10BAB000504602F03FF802460B46DDE9000102F075
:10BAC000B9FB02F02FF98246304602F073F9514675
:10BAD00002F08AF90146DFF80C0A02F0F7FA834611
:10BAE0005046002102F0CAFC72D07626762C6FDA1E
:10BAF000C4F17600009009F1EC0910F003040FD0B6
:10BB000030B202F057F9594602F0E0FA514602F01D
:10BB10005FFA02F0D5F9761E29F80209641EEFD10A
:10BB20000098840854D030B202F044F9594602F02B
:10BB3000CDFA514602F04CFA02F0C2F929F8020996
:10BB4000761E30B202F036F9594602F0BFFA51467D
:10BB500002F03EFA02F0B4F929F80209761E30B27A
:10BB600002F028F9594602F0B1FA514602F030FAD3
:10BB700002F0A6F929F80209761E30B202F01AF98D
:10BB8000594602F0A3FA514602F022FA02F098F95F
:10BB9000761E29F80209641EC5D119E0762C17DA41
:10BBA000C4F1760009F1EC0110F0030200F004800A
:10BBB00021F80269521EFBD1800809D021F80269E0
:10BBC00021F8026921F8026921F80269401EF5D1C5
:10BBD00097F9AE03002801F08F80002D41F08C8092
:10BBE00097F9AB0318B997F9A8031F2806DA97F954
:10BBF000AC0320B997F9A9031F2800DB054605F11E
:10BC00000A01DFF8DCB8C9B23BF91120681D491EF2
:10BC1000C0B28142C0F20B800BEB4103B3F900408C
:10BC2000A242B8BF2246491E9B1E8142F6DAD2B21A
:10BC3000002A41F061803BF915004F2881F25C80B9
:10BC4000DFF86896B9F9EE70381A06B22CB2002EF9
:10BC50007BD0C4F1770001F06DFFCDE900013046E3
:10BC600001F068FF02460B46DDE9000102F0E2FA4E
:10BC700002F058F88246384602F09CF8514602F02D
:10BC8000B3F80146DFF85C0802F020FA00900021CA
:10BC9000504602F0F3FB71D07627762C6EDAC4F1B1
:10BCA0007600019009F1EC0410F003060FD038B2D1
:10BCB00002F080F8009902F009FA514602F088F982
:10BCC00002F0FEF87F1E24F80209761EEFD10198DB
:10BCD000860853D038B202F06DF8009902F0F6F9F8
:10BCE000514602F075F902F0EBF824F802097F1EC4
:10BCF00038B202F05FF8009902F0E8F9514602F01C
:10BD000067F902F0DDF824F802097F1E38B202F06C
:10BD100051F8009902F0DAF9514602F059F902F0AF
:10BD2000CFF824F802097F1E38B202F043F80099D8
:10BD300002F0CCF9514602F04BF902F0C1F87F1E37
:10BD400024F80209761EC5D118E0762C16DAC4F163
:10BD5000760009F1EC0110F0030203D021F802791A
:10BD6000521EFBD1800809D021F8027921F802790E
:10BD700021F8027921F80279401EF5D1E81C4A46E3
:10BD80000021C0B2FEF7C0FFE81C804580F2B487F6
:10BD90000BEB4501A0EB080001F2060110F00302D5
:10BDA00004D0002321F80239521EFAD1800800F095
:10BDB000A387002221F8022921F8022921F802296B
:10BDC00021F80229401EF4D100F096BF032840F06C
:10BDD0009687DFF8E0744FF0FF3087F87907002985
:10BDE00000F00681292EC0F20381DFF8CCA4DFF831
:10BDF000BC94B9F9EE100AEB061050F8080C884212
:10BE000080F2F680DFF8A804DAF8744702708DF843
:10BE100009209DF908009DF909508DF80A000AEBE8
:10BE2000051003908068271A3FB2002F7BD0C5F120
:10BE3000770001F07FFECDE90001384601F07AFE7F
:10BE400002460B46DDE9000102F0F4F901F06AFF59
:10BE5000074620B201F0AEFF394601F0C5FF0146AA
:10BE6000DFF8800602F032F983463846002102F0FE
:10BE700005FB71D07624762D6EDAC5F17600009040
:10BE800009F1EC0510F003060FD020B201F092FF8B
:10BE9000594602F01BF9394602F09AF802F010F800
:10BEA000641E25F80209761EEFD10098860853D04B
:10BEB00020B201F07FFF594602F008F9394602F03E
:10BEC00087F801F0FDFF25F80209641E20B201F099
:10BED00071FF594602F0FAF8394602F079F801F09C
:10BEE000EFFF25F80209641E20B201F063FF5946F6
:10BEF00002F0ECF8394602F06BF801F0E1FF25F8AA
:10BF00000209641E20B201F055FF594602F0DEF826
:10BF1000394602F05DF801F0D3FF641E25F80209EE
:10BF2000761EC5D118E0762D16DAC5F1760009F136
:10BF3000EC0110F0030203D021F80249521EFBD19C
:10BF4000800809D021F8024921F8024921F8024964
:10BF500021F80249401EF5D19DF909109DF90A000A
:10BF600081420BDB039B09EB4102083353F8105964
:10BF700022F80259491E09B28142F7DA9DF8087089
:10BF8000DFF85C1501EB470030F90A1CB0F9062018
:10BF9000891A0AEB0712D36992699A1A8A4224DA3B
:10BFA0001F2922DBF91C884518DAA1EB080100F2F1
:10BFB000060011F0030204D0002320F80239521EBB
:10BFC000FAD189080AD0002220F8022920F8022993
:10BFD00020F8022920F80229491EF4D19DF8080012
:10BFE0004A460021C01C00F0D1BD4A4600F0CBBD3E
:10BFF00097F95C172929C0F2828697F95F07002814
:10C0000040F07D86A94EB6F9EEB04D1F36F9150009
:10C01000584580F27186ABEB00000FFA80FA2FB220
:10C02000BAF1000F00F07F80C7F1770001F082FDC8
:10C0300080460C46504601F07DFD02460B464046C8
:10C04000214602F0F7F801F06DFE8046584601F0F7
:10C05000B1FE414601F0C8FE0146DFF8880402F057
:10C0600035F883464046002102F008FA00F0448685
:10C070007624762F80F24086C7F1760706F1EC0928
:10C0800017F0030A10D020B201F094FE594602F0D6
:10C090001DF8414601F09CFF01F012FF641E29F8D3
:10C0A0000209BAF1010AEED1BF0800F0258620B2DC
:10C0B00001F080FE594602F009F8414601F088FF80
:10C0C00001F0FEFE29F80209641E20B201F072FEA2
:10C0D000594601F0FBFF414601F07AFF01F0F0FE06
:10C0E00029F80209641E20B201F064FE594601F0ED
:10C0F000EDFF414601F06CFF01F0E2FE29F8020974
:10C10000641E20B201F056FE594601F0DFFF4146A1
:10C1100001F05EFF01F0D4FE641E29F802097F1EC3
:10C12000C5D100F0E9BD762F80F2E685C7F1760033
:10C1300006F1EC0110F0030200F0048021F802B9CE
:10C14000521EFBD15FEA900000F0D68521F802B9BB
:10C1500021F802B921F802B921F802B9401EF5D13F
:10C1600000F0CABD092880F2CA85052818BF082832
:10C1700040F0F580DFF868B300294CD01A2E4ADB76
:10C180004B484C4F027097F9AF038242B4BFC41CB6
:10C190007724F51E87F87957DFF81CA19DF8087001
:10C1A0000AEB05100BEB450800F10C09BE1C02E080
:10C1B0006D1EA9F110093BF9147038F90209381AFB
:10C1C000611B90FBF1F001F0B5FCCDE90001D9F85D
:10C1D0003000D9F80010401A01F0ACFC0022374BB7
:10C1E00002F028F8DDE9002302F056F901D2AE4250
:10C1F000DEDB0AEB0510C068874280F28085722082
:10C2000000906AB29DF9083061B25846FEF796FE7A
:10C2100005B0BDE8F08F274F97F9AF1339B197F903
:10C2200079278A4203DA052808BF0C4603D0772411
:10C23000772100E0491E3BF9110020B18845F9DB68
:10C240003BF9110018B98845B8BF491EF8DB8D1EAF
:10C250000BEB450701E06D1EBF1E3BF91460B7F9FB
:10C260000090A6EB0900611B90FBF1F001F062FC6D
:10C27000CDE90001B7F90600A0EB090001F05AFC76
:10C2800000220E4B01F0D6FFDDE9002302F004F995
:10C2900001D2A845DFDB3BF915309E4255DB254630
:10C2A000024A02EB45000CE08595FF1FE883FF1F63
:10C2B0000D09FF1FF877FF1FFC8DFF1F00000840CE
:10C2C0006D1E30F902199F2902D0A845FFF6F8AF7C
:10C2D00032F915009F2803D1A845B8BF6D1EF7DBC2
:10C2E00002EB4507B7F906309F2B40F00885EA1CA2
:10C2F000CDF800B012B231462046FEF745FDA81D2C
:10C300005A460021C0B2FEF7FFFCE81C804580F2CF
:10C31000F384A0EB080007F2060110F0030204D03A
:10C320009F2321F80239521EFAD1800800F0E484DC
:10C330009F2221F8022921F8022921F8022921F857
:10C340000229401EF4D100F0D7BCCDF800B02AB2CB
:10C3500031462046FEF718FD05B0BDE8F08F0628EF
:10C3600040F00183DFF8E47C002900F016811A2EEA
:10C37000C0F2C284DFF8D8ACDFF864B1BBF9EE10CC
:10C380000AEB061008384368994280F2B584782198
:10C3900087F879179DF808703D46AE420BDB0AEB33
:10C3A00005130BEB45010C3353F8104B21F8024BEE
:10C3B0006D1CAE42F8DABBF9EE904068A9EB0005BF
:10C3C000511E2DB20CB2002D00F09080C4F1770008
:10C3D00001F0B0FBCDE90001284601F0ABFB0246BD
:10C3E0000B46DDE9000101F025FF01F09BFC009008
:10C3F000484601F0DFFC009901F0F6FC014639489F
:10C4000001F064FE01900021009802F037F800F07E
:10C4100087804FF07609762C80F28280C4F1760016
:10C4200003900BF1EC0510F0030411D00FFA89F022
:10C4300001F0C0FC019901F049FE009901F0C8FD2E
:10C4400001F03EFD25F80209A9F10109641EEDD1B4
:10C450000398840800F064800FFA89F001F0AAFCC8
:10C46000019901F033FE009901F0B2FD01F028FDC1
:10C4700025F80209A9F101090FFA89F001F09AFCE7
:10C48000019901F023FE009901F0A2FD01F018FDD1
:10C4900025F80209A9F101090FFA89F001F08AFCD7
:10C4A000019901F013FE009901F092FD01F008FDE1
:10C4B00025F80209A9F101090FFA89F001F07AFCC7
:10C4C000019901F003FE009901F082FD01F0F8FCF2
:10C4D00025F80209A9F10109641EBDD120E000BFC1
:10C4E000F882FF1F0000EE42D684FF1F762C17DA79
:10C4F000C4F176000BF1EC0110F0030200F00480AF
:10C5000021F80299521EFBD1800809D021F8029926
:10C5100021F8029921F8029921F80299401EF5D1DB
:10C52000DFF8101C01EB4700B0F9061030F90A2CB7
:10C53000891A0AEB0712D36992699A1A8A4223DA96
:10C540001F2921DBF91C884518DAA1EB080100F24C
:10C55000060011F0030204D09F2320F80239521E76
:10C56000FAD189080AD09F2220F8022920F802294E
:10C5700020F8022920F80229491EF4D19DF808006C
:10C580005A460021C01C03E05A46002108F103006E
:10C59000C0B2FEF7B9FB3546AEE397F979077828C4
:10C5A00024D097F9A8032928C0F2A68397F9AB23D2
:10C5B000002A40F0A18377220023782880F20D80A2
:10C5C000DFF8749B39F90140052CB8BF5B1C521E83
:10C5D00054B2A9F102098442F4DAC0F1770000EB09
:10C5E000D0704010DBB2984280F2868397F9AE0398
:10C5F000002800F0BB8097F9A80397F95C178142E7
:10C6000080F2B48097F9AB1309B91A2806DA97F9C2
:10C61000AC0320B997F9A9031A2800DBC51EE81C52
:10C620001A28C0F2A380DFF814BBBBF9EE603BF818
:10C630001500301A0FFA80FA2CB2BAF1000F7BD035
:10C64000C4F1770001F076FACDE90001504601F01F
:10C6500071FA02460B46DDE9000101F0EBFD01F045
:10C6600061FB8246304601F0A5FB514601F0BCFB60
:10C670000146DFF8CC0A01F029FD81465046002131
:10C6800001F0FCFE72D07626762C6FDAC4F17600CB
:10C6900000900BF1EC0B10F003040FD030B201F05E
:10C6A00089FB494601F012FD514601F091FC01F071
:10C6B00007FC761E2BF80209641EEFD1009884084F
:10C6C00054D030B201F076FB494601F0FFFC5146F0
:10C6D00001F07EFC01F0F4FB2BF80209761E30B26B
:10C6E00001F068FB494601F0F1FC514601F070FC95
:10C6F00001F0E6FB2BF80209761E30B201F05AFB7E
:10C70000494601F0E3FC514601F062FC01F0D8FB20
:10C710002BF80209761E30B201F04CFB494601F0BD
:10C72000D5FC514601F054FC01F0CAFB761E2BF8F3
:10C730000209641EC5D119E0762C17DAC4F176001F
:10C740000BF1EC0110F0030200F0048021F8026903
:10C75000521EFBD1800809D021F8026921F8026934
:10C7600021F8026921F80269401EF5D197F96207A4
:10C77000002800F0C182002D40F0BE8297F95F07CB
:10C7800018B997F95C071F2806DA97F9600720B9EE
:10C7900097F95D071F2800DB054605F10A01DFF860
:10C7A0009499C9B239F91120681D491EC0B281425D
:10C7B000C0F20B8009EB4103B3F900409442B8BFCB
:10C7C0002246491E9B1E8142F6DAD2B29F2A40F0D1
:10C7D000938239F915005128C0F28E82DFF85CB9D6
:10C7E000BBF9EE70381A06B22CB2002E7BD0C4F121
:10C7F000770001F09FF9CDE90001304601F09AF988
:10C8000002460B46DDE9000101F014FD01F08AFA51
:10C810008246384601F0CEFA514601F0E5FA01466B
:10C82000DFF81C0901F052FC00900021504601F095
:10C8300025FE71D07627762C6EDAC4F17600019051
:10C840000BF1EC0410F003060FD038B201F0B2FA8D
:10C85000009901F03BFC514601F0BAFB01F030FBBE
:10C860007F1E24F80209761EEFD10198860853D066
:10C8700038B201F09FFA009901F028FC514601F00E
:10C88000A7FB01F01DFB24F802097F1E38B201F05E
:10C8900091FA009901F01AFC514601F099FB01F060
:10C8A0000FFB24F802097F1E38B201F083FA0099C9
:10C8B00001F00CFC514601F08BFB01F001FB24F868
:10C8C00002097F1E38B201F075FA009901F0FEFBF3
:10C8D000514601F07DFB01F0F3FA7F1E24F80209B6
:10C8E000761EC5D118E0762C16DAC4F176000BF16D
:10C8F000EC0110F0030203D021F80279521EFBD1A3
:10C90000800809D021F8027921F8027921F802790A
:10C9100021F80279401EF5D1E81C5A460021C0B228
:10C92000FEF7F2F9E81C804580F2E681A0EB0800F2
:10C9300009EB450101F2060110F0030204D09F2328
:10C9400021F80239521EFAD1800800F0D5819F22C9
:10C9500021F8022921F8022921F8022921F80229C7
:10C96000401EF4D1C8E1072840F0C981DFF8DC7629
:10C970004FF0FF3087F87907002900F00D81292E4C
:10C98000C0F20A81DFF8C8A6DFF8B0B7BBF9EE0045
:10C990000AEB061108394968884280F2FD80DFF809
:10C9A000A407DAF8704702708DF809209DF9080095
:10C9B0009DF909508DF80A000AEB05100390C06834
:10C9C000271A3FB2002F7BD0C5F1770001F0B2F8F3
:10C9D000CDE90001384601F0ADF802460B46DDE92D
:10C9E000000101F027FC01F09DF9074620B201F09B
:10C9F000E1F9394601F0F8F90146DFF8440701F0A2
:10CA000065FB81463846002101F038FD72D076245E
:10CA1000762D6FDAC5F1760000900BF1EC0510F081
:10CA200003060FD020B201F0C5F9494601F04EFBD4
:10CA3000394601F0CDFA01F043FA641E25F80209E7
:10CA4000761EEFD10098860854D020B201F0B2F9DA
:10CA5000494601F03BFB394601F0BAFA01F030FAE1
:10CA600025F80209641E20B201F0A4F9494601F03C
:10CA70002DFB394601F0ACFA01F022FA25F8020943
:10CA8000641E20B201F096F9494601F01FFB3946B9
:10CA900001F09EFA01F014FA25F80209641E20B292
:10CAA00001F088F9494601F011FB394601F090FA8E
:10CAB00001F006FA641E25F80209761EC5D119E0B8
:10CAC000762D17DAC5F176000BF1EC0110F00302B8
:10CAD00000F0048021F80249521EFBD1800809D0E1
:10CAE00021F8024921F8024921F8024921F80249B6
:10CAF000401EF5D19DF909109DF90A0081420BDB1A
